{
  "address": "0x2098cb47B17082Ab6969FB2661f2759A9BF357c4",
  "abi": [
    {
      "inputs": [
        {
          "internalType": "address payable",
          "name": "_pokeMe",
          "type": "address"
        },
        {
          "internalType": "address",
          "name": "gotchiDiamond",
          "type": "address"
        },
        {
          "internalType": "address",
          "name": "dao",
          "type": "address"
        }
      ],
      "stateMutability": "nonpayable",
      "type": "constructor"
    },
    {
      "anonymous": false,
      "inputs": [
        {
          "indexed": false,
          "internalType": "address",
          "name": "gotchiOwner",
          "type": "address"
        }
      ],
      "name": "AddGotchiOwner",
      "type": "event"
    },
    {
      "anonymous": false,
      "inputs": [
        {
          "indexed": false,
          "internalType": "address",
          "name": "gotchiOwner",
          "type": "address"
        }
      ],
      "name": "RemoveGotchiOwner",
      "type": "event"
    },
    {
      "inputs": [],
      "name": "ETH",
      "outputs": [
        {
          "internalType": "address",
          "name": "",
          "type": "address"
        }
      ],
      "stateMutability": "view",
      "type": "function"
    },
    {
      "inputs": [
        {
          "internalType": "address",
          "name": "_gotchiOwner",
          "type": "address"
        }
      ],
      "name": "addGotchiOwner",
      "outputs": [],
      "stateMutability": "nonpayable",
      "type": "function"
    },
    {
      "inputs": [],
      "name": "gelato",
      "outputs": [
        {
          "internalType": "address payable",
          "name": "",
          "type": "address"
        }
      ],
      "stateMutability": "view",
      "type": "function"
    },
    {
      "inputs": [],
      "name": "getGotchiOwners",
      "outputs": [
        {
          "internalType": "address[]",
          "name": "",
          "type": "address[]"
        }
      ],
      "stateMutability": "view",
      "type": "function"
    },
    {
      "inputs": [],
      "name": "lastExecuted",
      "outputs": [
        {
          "internalType": "uint256",
          "name": "",
          "type": "uint256"
        }
      ],
      "stateMutability": "view",
      "type": "function"
    },
    {
      "inputs": [],
      "name": "petGotchis",
      "outputs": [],
      "stateMutability": "nonpayable",
      "type": "function"
    },
    {
      "inputs": [],
      "name": "pokeMe",
      "outputs": [
        {
          "internalType": "address",
          "name": "",
          "type": "address"
        }
      ],
      "stateMutability": "view",
      "type": "function"
    },
    {
      "inputs": [
        {
          "internalType": "address",
          "name": "_gotchiOwner",
          "type": "address"
        }
      ],
      "name": "removeGotchiOwner",
      "outputs": [],
      "stateMutability": "nonpayable",
      "type": "function"
    }
  ],
  "transactionHash": "0xeb19d067ae712dca448c88e6062e2eb96543ac5fab036a9e3d9b3850575eec50",
  "args": [
    "0x527a819db1eb0e34426297b03bae11F2f8B3A19E",
    "0x86935F11C86623deC8a25696E1C19a8659CbF95d",
    "0xb60374ae550f6ab6d18e7c9cfafa04ff310235c1"
  ],
  "numDeployments": 5,
  "solcInputHash": "b9ad98417c1a87a96c489b42ab7247db",
  "bytecode": "0x60c06040523480156200001157600080fd5b5060405162000ef838038062000ef8833981016040819052620000349162000140565b82806001600160a01b03166080816001600160a01b031660601b81525050806001600160a01b031663573ea5756040518163ffffffff1660e01b815260040160206040518083038186803b1580156200008c57600080fd5b505afa158015620000a1573d6000803e3d6000fd5b505050506040513d601f19601f82011682018060405250810190620000c791906200011a565b60601b6001600160601b03191660a05250600280546001600160a01b03199081166001600160a01b03948516908117909255600380548216909217909155600480549091169190921617905550620001ac565b6000602082840312156200012c578081fd5b8151620001398162000193565b9392505050565b60008060006060848603121562000155578182fd5b8351620001628162000193565b6020850151909350620001758162000193565b6040850151909250620001888162000193565b809150509250925092565b6001600160a01b0381168114620001a957600080fd5b50565b60805160601c60a05160601c610d19620001df60003960006107d301526000818161052a015261080f0152610d196000f3fe608060405234801561001057600080fd5b50600436106100885760003560e01c8063573ea5751161005b578063573ea575146100db5780638322fff2146100f0578063c84eee0d146100f8578063d377e1621461010057610088565b80631c15ff771461008d5780633199c988146100ab57806339d68252146100c05780634aa96c93146100d3575b600080fd5b610095610115565b6040516100a29190610c64565b60405180910390f35b6100be6100b93660046108bc565b61011b565b005b6100be6100ce3660046108bc565b6102d5565b6100be61051f565b6100e36107d1565b6040516100a29190610a14565b6100e36107f5565b6100e361080d565b610108610831565b6040516100a29190610a42565b60005481565b6004805460405163022b92c360e21b815260009283926001600160a01b0316916308ae4b0c9161014d91339101610a14565b60c06040518083038186803b15801561016557600080fd5b505afa158015610179573d6000803e3d6000fd5b505050506040513d601f19601f8201168201806040525081019061019d91906108df565b505050925092505060008211806101b45750600081115b806101d257503373f4bb53efcfd49fe036fdcc8f46d981203ae3bab8145b6101f75760405162461bcd60e51b81526004016101ee90610b8b565b60405180910390fd5b60005b6001548110156102cf57836001600160a01b03166001828154811061022f57634e487b7160e01b600052603260045260246000fd5b6000918252602090912001546001600160a01b031614156102bd576001818154811061026b57634e487b7160e01b600052603260045260246000fd5b600091825260209091200180546001600160a01b03191690556040517f283f3fd3e55b6e54d2987b2646307479764812a59c9dc1f270afff6617fb2765906102b4908690610a14565b60405180910390a15b806102c781610c84565b9150506101fa565b50505050565b600254604051636b9ac7f560e11b81526001600160a01b039091169063d7358fea906103079084903090600401610a28565b60206040518083038186803b15801561031f57600080fd5b505afa158015610333573d6000803e3d6000fd5b505050506040513d601f19601f8201168201806040525081019061035791906109fa565b6103735760405162461bcd60e51b81526004016101ee90610b0e565b60005b6001548110156103f057816001600160a01b0316600182815481106103ab57634e487b7160e01b600052603260045260246000fd5b6000918252602090912001546001600160a01b031614156103de5760405162461bcd60e51b81526004016101ee90610bb1565b806103e881610c84565b915050610376565b506002546040516313cb3cb360e31b81526000916001600160a01b031690639e59e59890610422908590600401610a14565b60006040518083038186803b15801561043a57600080fd5b505afa15801561044e573d6000803e3d6000fd5b505050506040513d6000823e601f3d908101601f191682016040526104769190810190610939565b905060008151116104995760405162461bcd60e51b81526004016101ee90610ac7565b6001805480820182556000919091527fb10e2d527612073b26eecdfd717e6a320cf44b4afac2b0732d9fcbe2b7fa0cf60180546001600160a01b0319166001600160a01b0384161790556040517f255741ebc5fddfc38956790da2978ab124067949bbbfd5019cdf31b638f367d190610513908490610a14565b60405180910390a15050565b336001600160a01b037f000000000000000000000000000000000000000000000000000000000000000016146105675760405162461bcd60e51b81526004016101ee90610b54565b61a8c0600054426105789190610c6d565b116105955760405162461bcd60e51b81526004016101ee90610c1f565b6001546105b45760405162461bcd60e51b81526004016101ee90610be8565b60005b6001548110156107ca57600254600180546000926001600160a01b031691639e59e59891859081106105f957634e487b7160e01b600052603260045260246000fd5b6000918252602090912001546040516001600160e01b031960e084901b16815261062f916001600160a01b031690600401610a14565b60006040518083038186803b15801561064757600080fd5b505afa15801561065b573d6000803e3d6000fd5b505050506040513d6000823e601f3d908101601f191682016040526106839190810190610939565b90506000815167ffffffffffffffff8111156106af57634e487b7160e01b600052604160045260246000fd5b6040519080825280602002602001820160405280156106d8578160200160208202803683370190505b50905060005b82518110156107525782818151811061070757634e487b7160e01b600052603260045260246000fd5b602002602001015163ffffffff1682828151811061073557634e487b7160e01b600052603260045260246000fd5b60209081029190910101528061074a81610c84565b9150506106de565b506003546040516322c6751960e01b81526001600160a01b03909116906322c6751990610783908490600401610a8f565b600060405180830381600087803b15801561079d57600080fd5b505af11580156107b1573d6000803e3d6000fd5b50505050505080806107c290610c84565b9150506105b7565b5042600055565b7f000000000000000000000000000000000000000000000000000000000000000081565b73eeeeeeeeeeeeeeeeeeeeeeeeeeeeeeeeeeeeeeee81565b7f000000000000000000000000000000000000000000000000000000000000000081565b6060600180548060200260200160405190810160405280929190818152602001828054801561088957602002820191906000526020600020905b81546001600160a01b0316815260019091019060200180831161086b575b5050505050905090565b805180151581146108a357600080fd5b919050565b805163ffffffff811681146108a357600080fd5b6000602082840312156108cd578081fd5b81356108d881610ccb565b9392505050565b60008060008060008060c087890312156108f7578182fd5b865161090281610ccb565b602088015160408901519197509550935061091f60608801610893565b92506080870151915060a087015190509295509295509295565b6000602080838503121561094b578182fd5b825167ffffffffffffffff80821115610962578384fd5b818501915085601f830112610975578384fd5b81518181111561098757610987610cb5565b838102604051858282010181811085821117156109a6576109a6610cb5565b604052828152858101935084860182860187018a10156109c4578788fd5b8795505b838610156109ed576109d9816108a8565b8552600195909501949386019386016109c8565b5098975050505050505050565b600060208284031215610a0b578081fd5b6108d882610893565b6001600160a01b0391909116815260200190565b6001600160a01b0392831681529116602082015260400190565b6020808252825182820181905260009190848201906040850190845b81811015610a835783516001600160a01b031683529284019291840191600101610a5e565b50909695505050505050565b6020808252825182820181905260009190848201906040850190845b81811015610a8357835183529284019291840191600101610aab565b60208082526027908201527f416464726573736573206d7573742068617665206174206c65617374206f6e6560408201526620676f7463686960c81b606082015260800190565b60208082526026908201527f4e6f7420617574686f72697a656420746f20626520706574206279206175746f6040820152653832ba3a32b960d11b606082015260800190565b60208082526017908201527f506f6b654d6552656164793a206f6e6c79506f6b654d65000000000000000000604082015260600190565b6020808252600c908201526b3737ba10309036b2b6b132b960a11b604082015260600190565b60208082526019908201527f476f746368697320616c7265616479206265696e672070657400000000000000604082015260600190565b6020808252601d908201527f4c617a795065747465723a206e6f20676f746368697320746f20706574000000604082015260600190565b60208082526025908201527f4c617a795065747465723a207065743a20313220686f757273206e6f7420656c604082015264185c1cd95960da1b606082015260800190565b90815260200190565b600082821015610c7f57610c7f610c9f565b500390565b6000600019821415610c9857610c98610c9f565b5060010190565b634e487b7160e01b600052601160045260246000fd5b634e487b7160e01b600052604160045260246000fd5b6001600160a01b0381168114610ce057600080fd5b5056fea26469706673582212205a495a21b502e86f26cd3ad089e1a9360eab1c2766abb0a3f98e5a3d639231a164736f6c63430008000033",
  "devdoc": {
    "kind": "dev",
    "methods": {},
    "version": 1
  },
  "userdoc": {
    "kind": "user",
    "methods": {},
    "version": 1
  },
  "storageLayout": {
    "storage": [
      {
        "astId": 662,
        "contract": "contracts/LazyPetter.sol:LazyPetter",
        "label": "lastExecuted",
        "offset": 0,
        "slot": "0",
        "type": "t_uint256"
      },
      {
        "astId": 665,
        "contract": "contracts/LazyPetter.sol:LazyPetter",
        "label": "gotchiOwners",
        "offset": 0,
        "slot": "1",
        "type": "t_array(t_address)dyn_storage"
      },
      {
        "astId": 668,
        "contract": "contracts/LazyPetter.sol:LazyPetter",
        "label": "af",
        "offset": 0,
        "slot": "2",
        "type": "t_contract(AavegotchiFacet)620"
      },
      {
        "astId": 671,
        "contract": "contracts/LazyPetter.sol:LazyPetter",
        "label": "agf",
        "offset": 0,
        "slot": "3",
        "type": "t_contract(AavegotchiGameFacet)627"
      },
      {
        "astId": 674,
        "contract": "contracts/LazyPetter.sol:LazyPetter",
        "label": "moloch",
        "offset": 0,
        "slot": "4",
        "type": "t_contract(Moloch)658"
      }
    ],
    "types": {
      "t_address": {
        "encoding": "inplace",
        "label": "address",
        "numberOfBytes": "20"
      },
      "t_array(t_address)dyn_storage": {
        "base": "t_address",
        "encoding": "dynamic_array",
        "label": "address[]",
        "numberOfBytes": "32"
      },
      "t_contract(AavegotchiFacet)620": {
        "encoding": "inplace",
        "label": "contract AavegotchiFacet",
        "numberOfBytes": "20"
      },
      "t_contract(AavegotchiGameFacet)627": {
        "encoding": "inplace",
        "label": "contract AavegotchiGameFacet",
        "numberOfBytes": "20"
      },
      "t_contract(Moloch)658": {
        "encoding": "inplace",
        "label": "contract Moloch",
        "numberOfBytes": "20"
      },
      "t_uint256": {
        "encoding": "inplace",
        "label": "uint256",
        "numberOfBytes": "32"
      }
    }
  }
}