{
  "address": "0xF01f4567586c3A707EBEC87651320b2dd9F4A287",
  "abi": [
    {
      "inputs": [
        {
          "internalType": "address",
          "name": "_pet",
          "type": "address"
        }
      ],
      "stateMutability": "nonpayable",
      "type": "constructor"
    },
    {
      "inputs": [],
      "name": "checker",
      "outputs": [
        {
          "internalType": "bool",
          "name": "canExec",
          "type": "bool"
        },
        {
          "internalType": "bytes",
          "name": "execPayload",
          "type": "bytes"
        }
      ],
      "stateMutability": "view",
      "type": "function"
    },
    {
      "inputs": [],
      "name": "pet",
      "outputs": [
        {
          "internalType": "address",
          "name": "",
          "type": "address"
        }
      ],
      "stateMutability": "view",
      "type": "function"
    }
  ],
  "transactionHash": "0x3915aaf85903f6354591a1b179f64f2b70a8a9186495d012ffa34f64780dd54d",
  "args": [
    "0x2098cb47B17082Ab6969FB2661f2759A9BF357c4"
  ],
  "numDeployments": 5,
  "solcInputHash": "71dc9a2118284f73de521535895cf98b",
  "bytecode": "0x60a060405234801561001057600080fd5b506040516102e53803806102e583398101604081905261002f91610044565b60601b6001600160601b031916608052610072565b600060208284031215610055578081fd5b81516001600160a01b038116811461006b578182fd5b9392505050565b60805160601c61024f610096600039600081816077015261014b015261024f6000f3fe608060405234801561001057600080fd5b50600436106100365760003560e01c8063cf5303cf1461003b578063e9b7d7dd1461005a575b600080fd5b61004361006f565b604051610051929190610199565b60405180910390f35b610062610149565b6040516100519190610185565b6000606060007f00000000000000000000000000000000000000000000000000000000000000006001600160a01b0316631c15ff776040518163ffffffff1660e01b815260040160206040518083038186803b1580156100ce57600080fd5b505afa1580156100e2573d6000803e3d6000fd5b505050506040513d601f19601f82011682018060405250810190610106919061016d565b905061a8c061011582426101f6565b6040805160048152602481019091526020810180516001600160e01b0316634aa96c9360e01b179052911094909350915050565b7f000000000000000000000000000000000000000000000000000000000000000081565b60006020828403121561017e578081fd5b5051919050565b6001600160a01b0391909116815260200190565b6000831515825260206040818401528351806040850152825b818110156101ce578581018301518582016060015282016101b2565b818111156101df5783606083870101525b50601f01601f191692909201606001949350505050565b60008282101561021457634e487b7160e01b81526011600452602481fd5b50039056fea264697066735822122058c2499bc5de011a3f97055ca5ba0131e346891d46e781b81968a3eae16b983764736f6c63430008000033",
  "devdoc": {
    "kind": "dev",
    "methods": {},
    "version": 1
  },
  "userdoc": {
    "kind": "user",
    "methods": {},
    "version": 1
  },
  "storageLayout": {
    "storage": [],
    "types": null
  }
}