{
  "address": "0x21d6F8EE8d0B9c33703CFFd4791c330Ec78CA453",
  "abi": [
    {
      "inputs": [
        {
          "internalType": "address payable",
          "name": "_pokeMe",
          "type": "address"
        },
        {
          "internalType": "address",
          "name": "gotchiDiamond",
          "type": "address"
        },
        {
          "internalType": "address",
          "name": "dao",
          "type": "address"
        }
      ],
      "stateMutability": "nonpayable",
      "type": "constructor"
    },
    {
      "anonymous": false,
      "inputs": [
        {
          "indexed": false,
          "internalType": "address",
          "name": "gotchiOwner",
          "type": "address"
        }
      ],
      "name": "AddGotchiOwner",
      "type": "event"
    },
    {
      "anonymous": false,
      "inputs": [
        {
          "indexed": false,
          "internalType": "address",
          "name": "gotchiOwner",
          "type": "address"
        }
      ],
      "name": "RemoveGotchiOwner",
      "type": "event"
    },
    {
      "inputs": [],
      "name": "ETH",
      "outputs": [
        {
          "internalType": "address",
          "name": "",
          "type": "address"
        }
      ],
      "stateMutability": "view",
      "type": "function"
    },
    {
      "inputs": [
        {
          "internalType": "address",
          "name": "_gotchiOwner",
          "type": "address"
        }
      ],
      "name": "addGotchiOwner",
      "outputs": [],
      "stateMutability": "nonpayable",
      "type": "function"
    },
    {
      "inputs": [],
      "name": "gelato",
      "outputs": [
        {
          "internalType": "address payable",
          "name": "",
          "type": "address"
        }
      ],
      "stateMutability": "view",
      "type": "function"
    },
    {
      "inputs": [],
      "name": "getGotchiOwners",
      "outputs": [
        {
          "internalType": "address[]",
          "name": "",
          "type": "address[]"
        }
      ],
      "stateMutability": "view",
      "type": "function"
    },
    {
      "inputs": [],
      "name": "lastExecuted",
      "outputs": [
        {
          "internalType": "uint256",
          "name": "",
          "type": "uint256"
        }
      ],
      "stateMutability": "view",
      "type": "function"
    },
    {
      "inputs": [],
      "name": "petGotchis",
      "outputs": [],
      "stateMutability": "nonpayable",
      "type": "function"
    },
    {
      "inputs": [],
      "name": "pokeMe",
      "outputs": [
        {
          "internalType": "address",
          "name": "",
          "type": "address"
        }
      ],
      "stateMutability": "view",
      "type": "function"
    },
    {
      "inputs": [
        {
          "internalType": "address",
          "name": "_gotchiOwner",
          "type": "address"
        }
      ],
      "name": "removeGotchiOwner",
      "outputs": [],
      "stateMutability": "nonpayable",
      "type": "function"
    }
  ],
  "transactionHash": "0x5a3470732bf73d0638ee97c7f52def0b057cef04ab4887d60060fcf7b6898855",
  "args": [
    "0x527a819db1eb0e34426297b03bae11F2f8B3A19E",
    "0x86935F11C86623deC8a25696E1C19a8659CbF95d",
    "0xb60374ae550f6ab6d18e7c9cfafa04ff310235c1"
  ],
  "numDeployments": 2,
  "solcInputHash": "573aeea672e0029f7e5da6ba21ccd568",
  "bytecode": "0x60c060405234801561001057600080fd5b5060405162000e8e38038062000e8e83398101604081905261003191610135565b82806001600160a01b03166080816001600160a01b031660601b81525050806001600160a01b031663573ea5756040518163ffffffff1660e01b815260040160206040518083038186803b15801561008857600080fd5b505afa15801561009c573d6000803e3d6000fd5b505050506040513d601f19601f820116820180604052508101906100c09190610112565b60601b6001600160601b03191660a05250600280546001600160a01b03199081166001600160a01b03948516908117909255600380548216909217909155600480549091169190921617905550610199565b600060208284031215610123578081fd5b815161012e81610181565b9392505050565b600080600060608486031215610149578182fd5b835161015481610181565b602085015190935061016581610181565b604085015190925061017681610181565b809150509250925092565b6001600160a01b038116811461019657600080fd5b50565b60805160601c60a05160601c610cc2620001cc60003960006107a20152600081816104f901526107de0152610cc26000f3fe608060405234801561001057600080fd5b50600436106100885760003560e01c8063573ea5751161005b578063573ea575146100db5780638322fff2146100f0578063c84eee0d146100f8578063d377e1621461010057610088565b80631c15ff771461008d5780633199c988146100ab57806339d68252146100c05780634aa96c93146100d3575b600080fd5b610095610115565b6040516100a29190610c0d565b60405180910390f35b6100be6100b936600461088b565b61011b565b005b6100be6100ce36600461088b565b61029b565b6100be6104ee565b6100e36107a0565b6040516100a291906109e3565b6100e36107c4565b6100e36107dc565b610108610800565b6040516100a29190610a11565b60005481565b6004805460405163022b92c360e21b815260009283926001600160a01b0316916308ae4b0c9161014d913391016109e3565b60c06040518083038186803b15801561016557600080fd5b505afa158015610179573d6000803e3d6000fd5b505050506040513d601f19601f8201168201806040525081019061019d91906108ae565b505050925092505060008211806101b45750600081115b6101bd57600080fd5b60005b60015481101561029557836001600160a01b0316600182815481106101f557634e487b7160e01b600052603260045260246000fd5b6000918252602090912001546001600160a01b03161415610283576001818154811061023157634e487b7160e01b600052603260045260246000fd5b600091825260209091200180546001600160a01b03191690556040517f283f3fd3e55b6e54d2987b2646307479764812a59c9dc1f270afff6617fb27659061027a9086906109e3565b60405180910390a15b8061028d81610c2d565b9150506101c0565b50505050565b600254604051636b9ac7f560e11b81526001600160a01b039091169063d7358fea906102cd90849030906004016109f7565b60206040518083038186803b1580156102e557600080fd5b505afa1580156102f9573d6000803e3d6000fd5b505050506040513d601f19601f8201168201806040525081019061031d91906109c9565b6103425760405162461bcd60e51b815260040161033990610add565b60405180910390fd5b60005b6001548110156103bf57816001600160a01b03166001828154811061037a57634e487b7160e01b600052603260045260246000fd5b6000918252602090912001546001600160a01b031614156103ad5760405162461bcd60e51b815260040161033990610b5a565b806103b781610c2d565b915050610345565b506002546040516313cb3cb360e31b81526000916001600160a01b031690639e59e598906103f19085906004016109e3565b60006040518083038186803b15801561040957600080fd5b505afa15801561041d573d6000803e3d6000fd5b505050506040513d6000823e601f3d908101601f191682016040526104459190810190610908565b905060008151116104685760405162461bcd60e51b815260040161033990610a96565b6001805480820182556000919091527fb10e2d527612073b26eecdfd717e6a320cf44b4afac2b0732d9fcbe2b7fa0cf60180546001600160a01b0319166001600160a01b0384161790556040517f255741ebc5fddfc38956790da2978ab124067949bbbfd5019cdf31b638f367d1906104e29084906109e3565b60405180910390a15050565b336001600160a01b037f000000000000000000000000000000000000000000000000000000000000000016146105365760405162461bcd60e51b815260040161033990610b23565b61a8c0600054426105479190610c16565b116105645760405162461bcd60e51b815260040161033990610bc8565b6001546105835760405162461bcd60e51b815260040161033990610b91565b60005b60015481101561079957600254600180546000926001600160a01b031691639e59e59891859081106105c857634e487b7160e01b600052603260045260246000fd5b6000918252602090912001546040516001600160e01b031960e084901b1681526105fe916001600160a01b0316906004016109e3565b60006040518083038186803b15801561061657600080fd5b505afa15801561062a573d6000803e3d6000fd5b505050506040513d6000823e601f3d908101601f191682016040526106529190810190610908565b90506000815167ffffffffffffffff81111561067e57634e487b7160e01b600052604160045260246000fd5b6040519080825280602002602001820160405280156106a7578160200160208202803683370190505b50905060005b8251811015610721578281815181106106d657634e487b7160e01b600052603260045260246000fd5b602002602001015163ffffffff1682828151811061070457634e487b7160e01b600052603260045260246000fd5b60209081029190910101528061071981610c2d565b9150506106ad565b506003546040516322c6751960e01b81526001600160a01b03909116906322c6751990610752908490600401610a5e565b600060405180830381600087803b15801561076c57600080fd5b505af1158015610780573d6000803e3d6000fd5b505050505050808061079190610c2d565b915050610586565b5042600055565b7f000000000000000000000000000000000000000000000000000000000000000081565b73eeeeeeeeeeeeeeeeeeeeeeeeeeeeeeeeeeeeeeee81565b7f000000000000000000000000000000000000000000000000000000000000000081565b6060600180548060200260200160405190810160405280929190818152602001828054801561085857602002820191906000526020600020905b81546001600160a01b0316815260019091019060200180831161083a575b5050505050905090565b8051801515811461087257600080fd5b919050565b805163ffffffff8116811461087257600080fd5b60006020828403121561089c578081fd5b81356108a781610c74565b9392505050565b60008060008060008060c087890312156108c6578182fd5b86516108d181610c74565b60208801516040890151919750955093506108ee60608801610862565b92506080870151915060a087015190509295509295509295565b6000602080838503121561091a578182fd5b825167ffffffffffffffff80821115610931578384fd5b818501915085601f830112610944578384fd5b81518181111561095657610956610c5e565b8381026040518582820101818110858211171561097557610975610c5e565b604052828152858101935084860182860187018a1015610993578788fd5b8795505b838610156109bc576109a881610877565b855260019590950194938601938601610997565b5098975050505050505050565b6000602082840312156109da578081fd5b6108a782610862565b6001600160a01b0391909116815260200190565b6001600160a01b0392831681529116602082015260400190565b6020808252825182820181905260009190848201906040850190845b81811015610a525783516001600160a01b031683529284019291840191600101610a2d565b50909695505050505050565b6020808252825182820181905260009190848201906040850190845b81811015610a5257835183529284019291840191600101610a7a565b60208082526027908201527f416464726573736573206d7573742068617665206174206c65617374206f6e6560408201526620676f7463686960c81b606082015260800190565b60208082526026908201527f4e6f7420617574686f72697a656420746f20626520706574206279206175746f6040820152653832ba3a32b960d11b606082015260800190565b60208082526017908201527f506f6b654d6552656164793a206f6e6c79506f6b654d65000000000000000000604082015260600190565b60208082526019908201527f476f746368697320616c7265616479206265696e672070657400000000000000604082015260600190565b6020808252601d908201527f4c617a795065747465723a206e6f20676f746368697320746f20706574000000604082015260600190565b60208082526025908201527f4c617a795065747465723a207065743a20313220686f757273206e6f7420656c604082015264185c1cd95960da1b606082015260800190565b90815260200190565b600082821015610c2857610c28610c48565b500390565b6000600019821415610c4157610c41610c48565b5060010190565b634e487b7160e01b600052601160045260246000fd5b634e487b7160e01b600052604160045260246000fd5b6001600160a01b0381168114610c8957600080fd5b5056fea2646970667358221220cf23ba4825fdadd4d7bc63877ddd3566c08b9b649655659e852050a00679b20664736f6c63430008000033",
  "devdoc": {
    "kind": "dev",
    "methods": {},
    "version": 1
  },
  "userdoc": {
    "kind": "user",
    "methods": {},
    "version": 1
  },
  "storageLayout": {
    "storage": [
      {
        "astId": 662,
        "contract": "contracts/LazyPetter.sol:LazyPetter",
        "label": "lastExecuted",
        "offset": 0,
        "slot": "0",
        "type": "t_uint256"
      },
      {
        "astId": 665,
        "contract": "contracts/LazyPetter.sol:LazyPetter",
        "label": "gotchiOwners",
        "offset": 0,
        "slot": "1",
        "type": "t_array(t_address)dyn_storage"
      },
      {
        "astId": 668,
        "contract": "contracts/LazyPetter.sol:LazyPetter",
        "label": "af",
        "offset": 0,
        "slot": "2",
        "type": "t_contract(AavegotchiFacet)620"
      },
      {
        "astId": 671,
        "contract": "contracts/LazyPetter.sol:LazyPetter",
        "label": "agf",
        "offset": 0,
        "slot": "3",
        "type": "t_contract(AavegotchiGameFacet)627"
      },
      {
        "astId": 674,
        "contract": "contracts/LazyPetter.sol:LazyPetter",
        "label": "moloch",
        "offset": 0,
        "slot": "4",
        "type": "t_contract(Moloch)658"
      }
    ],
    "types": {
      "t_address": {
        "encoding": "inplace",
        "label": "address",
        "numberOfBytes": "20"
      },
      "t_array(t_address)dyn_storage": {
        "base": "t_address",
        "encoding": "dynamic_array",
        "label": "address[]",
        "numberOfBytes": "32"
      },
      "t_contract(AavegotchiFacet)620": {
        "encoding": "inplace",
        "label": "contract AavegotchiFacet",
        "numberOfBytes": "20"
      },
      "t_contract(AavegotchiGameFacet)627": {
        "encoding": "inplace",
        "label": "contract AavegotchiGameFacet",
        "numberOfBytes": "20"
      },
      "t_contract(Moloch)658": {
        "encoding": "inplace",
        "label": "contract Moloch",
        "numberOfBytes": "20"
      },
      "t_uint256": {
        "encoding": "inplace",
        "label": "uint256",
        "numberOfBytes": "32"
      }
    }
  }
}